:100C4F00C102042300000000043200000000043839
:080C5F003F800000C101C180CB
:100B8400120CA0120BFE120C7E7580773000251219
:100B94000CD5BF2A1F30001CE4F508120CD57427AD
:100BA4002508F8A6070508E508C3940B40ED1209CB
:100BB4004C1205A62000D575263375253375247B84
:100BC400752342E4F53BF53A75398075383E1205D4
:030BD400A680B93F
:040CAF007F647E00E0
:0A0CB300EF1F70011E144E70F722AF
:10094C00E4F509F50AF526F525F524F523F50B74E0
:10095C0027250BF8E6FB642E6021AE09AF0A7C005C
:10096C007D0A1205318E098F0AEB24D0FFE434FF87
:10097C00FEEF250AF50AEE3509F509050BE50BB472
:10098C0005CDAC09AD0AE41203328F268E258D24D9
:10099C008C237B0A7AD77923783C12010E8F268E12
:1009AC00258D248C23E52C24D0D394004004D20232
:1009BC008002C202E4F53BF53AF539F538F509F554
:1009CC000AF50B742D250BF8E6FB642E6021AE099D
:1009DC00AF0A7C007D0A1205318E098F0AEB24D0F8
:1009EC00FFE434FFFEEF250AF50AEE3509F509059B
:1009FC000BE50BB405CDAC09AD0AE41203328F3B09
:100A0C008E3A8D398C387B0A7AD77923783C12014F
:090A1C000E8F3B8E3A8D398C38A7
:010A250022AE
:100C7E00D288D2A8D2AFD28AD2AAD2B5D2B6D2B7A1
:010C8E002243
:03000300020C36B6
:100C3600C2A8B2027526007525007524007523002A
:090C4600752100752200D2A832CC
:03000B00020006EA
:0100060032C7
:0300130002084D93
:10084D00C0E0C0F0C083C082C0D075D000C000C071
:10085D0001C002C003C004C005C006C007C2AA2063
:10086D00B523120CAF30B50302092F30B5FDB20020
:10087D0075260075250075240075230075210075FA
:10088D00220002092F20B411120CAF30B40302095B
:10089D002F30B4FDB20202092F20B71E120CAF305B
:1008AD00B70302092F30B7FDAF3BAE3AAD39AC38C7
:1008BD007BCD7ACC79CC783D803920B665120CAFE2
:1008CD0020B65F30B6FD7FCD7ECC7DCC7CBDAB3B05
:1008DD00AA3AA939A83812001DE4FBFAF9F8120258
:1008ED00B4503FAF3BAE3AAD39AC387BCD7ACC7915
:1008FD00CC78BD12001D8F3B8E3A8D398C38AB3BB9
:10090D00AA3AA939A8387F007E407D1C7C46120288
:10091D0017E4FBFA7980784512021712036B8E1DCE
:10092D008F1ED2AAD007D006D005D004D003D00296
:0F093D00D001D000D0D0D082D083D0F0D0E03223
:0100070022D6
:100C1C00008000C0004000600020003000100090F8
:0A0C2C007714B3B6D4E6EF34F7F600
:1005A6007BC37AF579487840AF26AE25AD24AC23D7
:1005B600120217E4FBFA7934784312010EE4FBFACF
:1005C60079B4783D12021712036B8E218F22AB3B52
:1005D600AA3AA939A8387F007E507DC37C4712020B
:1005E60017E4FBFA7980784512021712036B8E1D09
:1005F6008F1EE4F509F50AC3E50A9522E50995215A
:10060600400302071D30023BE50A5407B4080040C8
:10061600030206A2900621F828287302063902066C
:100626003B02063D02063F0206410206430206451C
:1006360002064780368039803C803F804280458074
:1006460048804BE50A5407B408005050900659F804
:1006560028287302069402068F02068A020685027D
:10066600068002067B020676020671900C1C80212B
:10067600900C1E801C900C208017900C22801290EB
:100686000C24800D900C268008900C288003900C7A
:100696002A740193FFE5A0540F4FF5A0E50A7043B5
:1006A600E509FD7C00E41203327BC37AF579C8784C
:1006B6004012010EE4FBFA79807841120217A20279
:1006C6009203853B12853A1185391085380F7513CB
:1006D6000075140075152712071E7B007A0079270E
:1006E600120A26E509540F450A7014E509C4540F89
:1006F6007E00242CF582EE340CF583E493F580E538
:100706001E24FCFFE51D34FFFE120CCA050AE50A8D
:07071600700205090205FD58
:01071D0022B9
:0B0CCA00EF1FAC0670011E4C70F622FC
:0D0CBD006172633A006469723A006E3A0099
:100BFE007F38120C8F7F0C120C8F7F06120C8F7F9A
:0E0C0E0001120C8F7F80120C8F7F02020C6E81
:100C8F00C2A0C2A3120C68D2A07F01120C6EC2A028
:010C9F002232
:100BD700C3950FFFE49400AB0BAA0CA90D8F82F508
:050BE700831204E2FF8F
:100BEC00C2A0D2A3120C6800D2A07F01120C6EC25C
:020BFC00A02235
:060A26008B0B8A0C890D08
:100A2C00E4F50EF50F78107C00FD7BFF7A0C79BD98
:100A3C00FE7F051204BC78157C007D007BFF7A0CD0
:100A4C0079C27E007F051204BC781A7C007D007B85
:100A5C00FF7A0C79C77E007F031204BC7480250ECC
:100A6C00F50EFF120C8FE4F50F7410250FF8E6FF4E
:100A7C00120BEC050FE50FC3940440EDE4F50F7475
:100A8C0004120BD7050FE50FC3940540F2E50E24B5
:100A9C000BFF120C8FE4F50F7415250FF8E6FF12FF
:100AAC000BEC050FE50FC3940440EDAB0BAA0CA99E
:100ABC000D900005120BE8E4F50E74C0250EF50E32
:100ACC00FF120C8FE4F50F741A250FF8E6FF120BCA
:100ADC00EC050FE50FC3940240EDE4F50F740A1218
:0B0AEC000BD7050FE50FC3940540F287
:010AF70022DC
:060C6800C2A18F907F0184
:0F0C6E00EFD394004009E4FE0EBE02FC1F80F19C
:010C7D002254
:08071E008F0E8E0D8D0C8C0B6B
:10072600E4F516F517FFFE7DC87C42AB0EAA0DA9AF
:100736000CA80B12010E12036B8E168F17E4F51818
:10074600F519E519640245187013AB13AA14A91517
:10075600851982851883742E12050F802CAE16AF6C
:10076600177C007D0A120543ED2430AB13AA14A9A9
:100776001585198285188312050FAE16AF177C00F2
:100786007D0A1205438E168F170519E519700205A5
:10079600186405451870AB300319AB13AA14A915D4
:1007A6000519E519AE187002051814F5828E8374C2
:1007B600538017AB13AA14A9150519E519AE1870BD
:1007C60002051814F5828E83744E12050FE4F51691
:1007D600F517FFFE7DC87C42AB12AA11A910A80F1F
:1007E60012010E12036B8E168F17C3E519940BE5D3
:1007F6001894005051E519640845187013AB13AAF4
:1008060014A915851982851883742E12050F802C5C
:10081600AE16AF177C007D0A120543ED2430AB13EC
:10082600AA14A91585198285188312050FAE16AF6D
:10083600177C007D0A1205438E168F170519E519D8
:0608460070A8051880A453
:01084C002289
:0F0CA000758920758BFD758DFD759850D28E224C
:080CE0008F993099FDC29922A1
:0A0CD5002098032000FAAF99C2989E
:010CDF0022F2
:100016000203D7E86480F8E933E83360110460F03E
:10002600ED33EC337009E8FCE9FDEAFEEBFF220450
:1000360060DED3EB9FEA9EE99DE8C2E78CF0C2F74B
:1000460095F0400CE8CCF8E9CDF9EACEFAEBCFFB17
:100056001203A285D0F05804700320D5B3E80470CB
:10006600075002B2D50203E192D5EC0460F7E4CC66
:10007600C0E0C398F8603B94186008400DD0E0FBE0
:100086000203B9E4FBFAC9FC8028E830E406E4C9B7
:10009600FBE4CAFCE830E305E4C9CACBFCE8540734
:1000A6006010F8C3E913F9EA13FAEB13FBEC13FC3F
:1000B600D8F130F52FC3E49CFCEF9BFFEE9AFEEDE2
:1000C60099FDD0E0FBEF4E4D4C701222DB0302038C
:1000D600DEEC2CFCEF33FFEE33FEED33FDED30E7C7
:1000E600EB0203B9EF2BFFEE3AFEED39FDD0E0FB54
:1000F60050130BBB00030203E1ED13FDEE13FEEFFD
:0801060013FFEC13FC0203B926
:10010E00EC4D6011E8497017ED33EC3304600DE4EB
:10011E00FCFFFEFD22E933E8330470F80203D71228
:10012E0003A258046009E4CC248150062850090229
:10013E0003E12840030203DEC0E0EB4A7044B980BD
:10014E0006D0E0FB0203CDEF4E701CBD8008EBFF26
:10015E00EAFEE9FD80EBE98DF0A4FEE5F00201F781
:10016E00E9CDF9EAFEEBFFEF89F0A4FCE5F0CE89CC
:10017E00F0A42EFFE435F0CD89F0A42DFEE435F089
:10018E008067EF4E7005BD80D780C3EF8BF0A4ACB7
:10019E00F0EE8BF0A42CFCE435F0F8EF8AF0A42CF2
:1001AE00E5F038FCE433CB8DF0A42CFCE5F03BF805
:1001BE00EE8AF0A42CFCE5F038F8E433CF89F0A4F5
:1001CE002CFCE5F038CF3400CE89F0A42FFFE5F0FB
:1001DE003EFEE433C98DF0A42EFEE5F039CD8AF053
:1001EE00A42FFFE5F03EFEE43DFD33D0E0FB5007CB
:1001FE000BBB000F0203E1EC2CFCEF33FFEE33FEE2
:06020E00ED33FD0203B90F
:100214000203E1EC5D046005E8590470030203D7AE
:100224001203A2580460F6EC4860F2EC7004FDFE80
:10023400FF22C860DB2481C85009C39860025006BD
:100244000203DE9850CAF582E9294B4A7005AB8255
:100254000203CD75F0007C1A7880C3EF9BEE9AED13
:1002640099400DC3EF9BFFEE9AFEED99FDE842F035
:10027400DC23ACF0D0E0FFD0E0FED0E0FDAB822088
:10028400E7101BEB60BAEC2CFCEF33FFEE33FEED12
:1002940033FD0203B9E803F830E705C0F075F00058
:1002A400EF2FFFEE33FEED33FD40B830E7C280AAF6
:1002B40074F8CC6480CCC86480C8F58204604FC3F1
:1002C400EB9FF5F0EA9E42F0E99D42F0E89C45F090
:1002D400603C501DE5825FFFE582D313CB5BCBF41A
:1002E4002B5582FB50280ABA002409B90020088043
:1002F4001DE5825BFBE582D313CF5FCFF4C3132FDD
:100304005582FF50090EBE00050DBD00010CC3EB64
:100314009FF5F0EA9E42F0E99D42F0E89C45F060CA
:0903240007CC4820E701B3EC22EC
:10032D0075F020800E75F010800575F0087D007E4B
:10033D00007F003392D530D503120598EC33401071
:10034D00EF33FFEE33FEED33FDEC33FCD5F0ED2254
:0E035D00E5F0247EA2D513CC92E7CDCEFF2290
:10036B00EDD2E7CD33EC3392D524814006E4FFFE8A
:10037B00FDFC22FCE4CFCECDCC24E0501174FF80E9
:10038B00EDC3CC13CCCD13CDCE13CECF13CF047086
:07039B00F030D5DE020598E9
:1003A200E9D2E7C933E833F892D5EDD2E7CD33ECA1
:0703B20033FC5002B2D5221A
:1003B900EC30E7100FBF000C0EBE00080DBD0004A5
:1003C9000BEB6014A2D5EB13FCED92E7FD2274FF51
:1003D900FCFDFEFF22E480F8A2D574FF13FC7D80AA
:0303E900E480EFBE
:03000000020AF8F9
:0C0AF800787FE4F6D8FD75813B020B3FCF
:1003EC00E709F608DFFA8046E709F208DFFA803EF3
:1003FC0088828C83E709F0A3DFFA8032E309F608E0
:10040C00DFFA8078E309F208DFFA807088828C8347
:10041C00E309F0A3DFFA806489828A83E0A3F608FB
:10042C00DFFA805889828A83E0A3F208DFFA804CD5
:10043C0080D280FA80C680D4806980F280338010AC
:10044C0080A680EA809A80A880DA80E280CA803315
:10045C0089828A83ECFAE493A3C8C582C8CCC5838D
:10046C00CCF0A3C8C582C8CCC583CCDFE9DEE7805D
:10047C000D89828A83E493A3F608DFF9ECFAA9F0DC
:10048C00EDFB2289828A83ECFAE0A3C8C582C8CC32
:10049C00C583CCF0A3C8C582C8CCC583CCDFEADE4B
:1004AC00E880DB89828A83E493A3F208DFF980CCAD
:1004BC0088F0EF60010E4E60C388F0ED2402B404A6
:1004CC000050B9F582EB2402B4040050AF2323454D
:0604DC00822390043C7332
:1004E200BB010CE58229F582E5833AF583E02250CF
:1004F20006E92582F8E622BBFE06E92582F8E22219
:0D050200E58229F582E5833AF583E4932232
:10050F00F8BB010DE58229F582E5833AF583E8F022
:10051F00225006E92582C8F622BBFE05E92582C8CE
:02052F00F222B6
:10053100EF8DF0A4A8F0CF8CF0A428CE8DF0A42EDE
:02054100FE2298
:10054300BC000BBE0029EF8DF084FFADF022E4CC9C
:10055300F875F008EF2FFFEE33FEEC33FCEE9DEC65
:10056300984005FCEE9DFE0FD5F0E9E4CEFD22EDAB
:10057300F8F5F0EE8420D21CFEADF075F008EF2FF5
:10058300FFED33FD4007985006D5F0F222C398FDE6
:050593000FD5F0EA2283
:0E059800C3E49FFFE49EFEE49DFDE49CFC2274
:100B0400020B84E493A3F8E493A34003F68001F278
:100B140008DFF48029E493A3F85407240CC8C333F2
:100B2400C4540F4420C8834004F456800146F6DFC1
:100B3400E4800B0102040810204080900C4FE47EF6
:100B4400019360BCA3FF543F30E509541FFEE493B6
:100B5400A360010ECF54C025E060A840B8E493A37D
:100B6400FAE493A3F8E493A3C8C582C8CAC583CAA8
:100B7400F0A3C8C582C8CAC583CADFE9DEE780BE60
:010C6700008C
:00000001FF
